{
  "_format": "hh-sol-artifact-1",
  "contractName": "WETHGateway",
  "sourceName": "contracts/WETHGateway.sol",
  "abi": [
    {
      "inputs": [
        {
          "internalType": "address",
          "name": "lendingPool",
          "type": "address"
        },
        {
          "internalType": "address",
          "name": "onBehalfOf",
          "type": "address"
        },
        {
          "internalType": "uint16",
          "name": "referralCode",
          "type": "uint16"
        }
      ],
      "name": "depositETH",
      "outputs": [],
      "stateMutability": "payable",
      "type": "function"
    },
    {
      "inputs": [],
      "name": "name",
      "outputs": [
        {
          "internalType": "string",
          "name": "",
          "type": "string"
        }
      ],
      "stateMutability": "view",
      "type": "function"
    },
    {
      "inputs": [
        {
          "internalType": "address",
          "name": "lendingPool",
          "type": "address"
        },
        {
          "internalType": "uint256",
          "name": "amount",
          "type": "uint256"
        },
        {
          "internalType": "address",
          "name": "onBehalfOf",
          "type": "address"
        }
      ],
      "name": "withdrawETH",
      "outputs": [],
      "stateMutability": "nonpayable",
      "type": "function"
    }
  ],
  "bytecode": "0x608060405234801561001057600080fd5b506104f6806100206000396000f3fe6080604052600436106100345760003560e01c806306fdde0314610039578063474cf53d1461006457806380500d2014610080575b600080fd5b34801561004557600080fd5b5061004e6100a9565b60405161005b9190610273565b60405180910390f35b61007e60048036038101906100799190610332565b6100e2565b005b34801561008c57600080fd5b506100a760048036038101906100a291906103bb565b610131565b005b6040518060400160405280601281526020017f4d6f636b6564205745544847617465776179000000000000000000000000000081525081565b6000839050600083905060008390508173ffffffffffffffffffffffffffffffffffffffff168373ffffffffffffffffffffffffffffffffffffffff160361012957600190505b505050505050565b60003373ffffffffffffffffffffffffffffffffffffffff16836040516101579061043f565b60006040518083038185875af1925050503d8060008114610194576040519150601f19603f3d011682016040523d82523d6000602084013e610199565b606091505b50509050806101dd576040517f08c379a00000000000000000000000000000000000000000000000000000000081526004016101d4906104a0565b60405180910390fd5b50505050565b600081519050919050565b600082825260208201905092915050565b60005b8381101561021d578082015181840152602081019050610202565b60008484015250505050565b6000601f19601f8301169050919050565b6000610245826101e3565b61024f81856101ee565b935061025f8185602086016101ff565b61026881610229565b840191505092915050565b6000602082019050818103600083015261028d818461023a565b905092915050565b600080fd5b600073ffffffffffffffffffffffffffffffffffffffff82169050919050565b60006102c58261029a565b9050919050565b6102d5816102ba565b81146102e057600080fd5b50565b6000813590506102f2816102cc565b92915050565b600061ffff82169050919050565b61030f816102f8565b811461031a57600080fd5b50565b60008135905061032c81610306565b92915050565b60008060006060848603121561034b5761034a610295565b5b6000610359868287016102e3565b935050602061036a868287016102e3565b925050604061037b8682870161031d565b9150509250925092565b6000819050919050565b61039881610385565b81146103a357600080fd5b50565b6000813590506103b58161038f565b92915050565b6000806000606084860312156103d4576103d3610295565b5b60006103e2868287016102e3565b93505060206103f3868287016103a6565b9250506040610404868287016102e3565b9150509250925092565b600081905092915050565b50565b600061042960008361040e565b915061043482610419565b600082019050919050565b600061044a8261041c565b9150819050919050565b7f5472616e73666572206661696c65642100000000000000000000000000000000600082015250565b600061048a6010836101ee565b915061049582610454565b602082019050919050565b600060208201905081810360008301526104b98161047d565b905091905056fea26469706673582212207b7b2bdbd4ce7cf3ba5d236a1ed98a56c005d21c9626aa76a546f17648d8f57764736f6c63430008110033",
  "linkReferences": {},
  "deployedLinkReferences": {}
}