{
  "_format": "hh-sol-artifact-1",
  "contractName": "StakingEthersContract",
  "sourceName": "contracts/StakingEthers.sol",
  "abi": [
    {
      "inputs": [
        {
          "internalType": "uint256",
          "name": "_lockPeriod",
          "type": "uint256"
        },
        {
          "internalType": "address",
          "name": "_wETHGateway",
          "type": "address"
        },
        {
          "internalType": "address",
          "name": "_aWETH",
          "type": "address"
        },
        {
          "internalType": "address",
          "name": "_lendingPoolAddress",
          "type": "address"
        }
      ],
      "stateMutability": "nonpayable",
      "type": "constructor"
    },
    {
      "inputs": [],
      "name": "EtherTransferFailed",
      "type": "error"
    },
    {
      "inputs": [],
      "name": "NeedsMoreThanZero",
      "type": "error"
    },
    {
      "inputs": [],
      "name": "ZeroAddress",
      "type": "error"
    },
    {
      "anonymous": false,
      "inputs": [
        {
          "indexed": true,
          "internalType": "address",
          "name": "from",
          "type": "address"
        },
        {
          "indexed": true,
          "internalType": "address",
          "name": "owner",
          "type": "address"
        },
        {
          "indexed": false,
          "internalType": "uint256",
          "name": "amount",
          "type": "uint256"
        },
        {
          "indexed": false,
          "internalType": "uint256",
          "name": "time",
          "type": "uint256"
        }
      ],
      "name": "OwnerGotRewards",
      "type": "event"
    },
    {
      "anonymous": false,
      "inputs": [
        {
          "indexed": true,
          "internalType": "address",
          "name": "from",
          "type": "address"
        },
        {
          "indexed": false,
          "internalType": "uint256",
          "name": "amount",
          "type": "uint256"
        },
        {
          "indexed": false,
          "internalType": "uint256",
          "name": "time",
          "type": "uint256"
        }
      ],
      "name": "OwnerIncomeWithdrawn",
      "type": "event"
    },
    {
      "anonymous": false,
      "inputs": [
        {
          "indexed": true,
          "internalType": "address",
          "name": "from",
          "type": "address"
        },
        {
          "indexed": false,
          "internalType": "uint256",
          "name": "amount",
          "type": "uint256"
        },
        {
          "indexed": false,
          "internalType": "uint256",
          "name": "time",
          "type": "uint256"
        }
      ],
      "name": "OwnerRewardsWithdrawn",
      "type": "event"
    },
    {
      "anonymous": false,
      "inputs": [
        {
          "indexed": true,
          "internalType": "address",
          "name": "previousOwner",
          "type": "address"
        },
        {
          "indexed": true,
          "internalType": "address",
          "name": "newOwner",
          "type": "address"
        }
      ],
      "name": "OwnershipTransferred",
      "type": "event"
    },
    {
      "anonymous": false,
      "inputs": [
        {
          "indexed": true,
          "internalType": "address",
          "name": "from",
          "type": "address"
        },
        {
          "indexed": false,
          "internalType": "uint256",
          "name": "amount",
          "type": "uint256"
        },
        {
          "indexed": false,
          "internalType": "uint256",
          "name": "time",
          "type": "uint256"
        }
      ],
      "name": "Staked",
      "type": "event"
    },
    {
      "anonymous": false,
      "inputs": [
        {
          "indexed": true,
          "internalType": "address",
          "name": "from",
          "type": "address"
        },
        {
          "indexed": false,
          "internalType": "uint256",
          "name": "amount",
          "type": "uint256"
        },
        {
          "indexed": false,
          "internalType": "uint256",
          "name": "inRewardPool",
          "type": "uint256"
        },
        {
          "indexed": false,
          "internalType": "uint256",
          "name": "time",
          "type": "uint256"
        }
      ],
      "name": "Unstaked",
      "type": "event"
    },
    {
      "stateMutability": "payable",
      "type": "fallback"
    },
    {
      "inputs": [],
      "name": "depositETH",
      "outputs": [],
      "stateMutability": "payable",
      "type": "function"
    },
    {
      "inputs": [],
      "name": "getCurrentNumberOfUsers",
      "outputs": [
        {
          "internalType": "uint256",
          "name": "",
          "type": "uint256"
        }
      ],
      "stateMutability": "view",
      "type": "function"
    },
    {
      "inputs": [],
      "name": "getCurrentStakedBalance",
      "outputs": [
        {
          "internalType": "uint256",
          "name": "",
          "type": "uint256"
        }
      ],
      "stateMutability": "view",
      "type": "function"
    },
    {
      "inputs": [],
      "name": "getOwnersUnallocatedBalance",
      "outputs": [
        {
          "internalType": "uint256",
          "name": "",
          "type": "uint256"
        }
      ],
      "stateMutability": "view",
      "type": "function"
    },
    {
      "inputs": [],
      "name": "getUserStakeInfo",
      "outputs": [
        {
          "components": [
            {
              "internalType": "uint256",
              "name": "depositTime",
              "type": "uint256"
            },
            {
              "internalType": "uint256",
              "name": "curStakedAmount",
              "type": "uint256"
            },
            {
              "internalType": "uint256",
              "name": "lastRewardFactor",
              "type": "uint256"
            },
            {
              "internalType": "uint256",
              "name": "rewardAmount",
              "type": "uint256"
            }
          ],
          "internalType": "struct StakingEthersContract.stakeInfo",
          "name": "",
          "type": "tuple"
        }
      ],
      "stateMutability": "view",
      "type": "function"
    },
    {
      "inputs": [],
      "name": "getUserStakedAmount",
      "outputs": [
        {
          "internalType": "uint256",
          "name": "",
          "type": "uint256"
        }
      ],
      "stateMutability": "view",
      "type": "function"
    },
    {
      "inputs": [],
      "name": "name",
      "outputs": [
        {
          "internalType": "string",
          "name": "",
          "type": "string"
        }
      ],
      "stateMutability": "view",
      "type": "function"
    },
    {
      "inputs": [],
      "name": "owner",
      "outputs": [
        {
          "internalType": "address",
          "name": "",
          "type": "address"
        }
      ],
      "stateMutability": "view",
      "type": "function"
    },
    {
      "inputs": [],
      "name": "renounceOwnership",
      "outputs": [],
      "stateMutability": "view",
      "type": "function"
    },
    {
      "inputs": [
        {
          "internalType": "address",
          "name": "newOwner",
          "type": "address"
        }
      ],
      "name": "transferOwnership",
      "outputs": [],
      "stateMutability": "nonpayable",
      "type": "function"
    },
    {
      "inputs": [],
      "name": "withdrawETH",
      "outputs": [],
      "stateMutability": "nonpayable",
      "type": "function"
    },
    {
      "inputs": [],
      "name": "withdrawOwnerRemainingProfit",
      "outputs": [],
      "stateMutability": "nonpayable",
      "type": "function"
    },
    {
      "inputs": [],
      "name": "withdrawOwnerUnallocatedRewards",
      "outputs": [],
      "stateMutability": "nonpayable",
      "type": "function"
    },
    {
      "stateMutability": "payable",
      "type": "receive"
    }
  ],
  "bytecode": "0x6101006040523480156200001257600080fd5b50604051620027c5380380620027c58339818101604052810190620000389190620003f6565b620000586200004c6200028560201b60201c565b6200028d60201b60201c565b6001808190555083600081036200009b576040517ff45911f000000000000000000000000000000000000000000000000000000000815260040160405180910390fd5b83600073ffffffffffffffffffffffffffffffffffffffff168173ffffffffffffffffffffffffffffffffffffffff160362000103576040517fd92e233d00000000000000000000000000000000000000000000000000000000815260040160405180910390fd5b83600073ffffffffffffffffffffffffffffffffffffffff168173ffffffffffffffffffffffffffffffffffffffff16036200016b576040517fd92e233d00000000000000000000000000000000000000000000000000000000815260040160405180910390fd5b83600073ffffffffffffffffffffffffffffffffffffffff168173ffffffffffffffffffffffffffffffffffffffff1603620001d3576040517fd92e233d00000000000000000000000000000000000000000000000000000000815260040160405180910390fd5b8760e081815250508673ffffffffffffffffffffffffffffffffffffffff1660808173ffffffffffffffffffffffffffffffffffffffff16815250508573ffffffffffffffffffffffffffffffffffffffff1660c08173ffffffffffffffffffffffffffffffffffffffff16815250508473ffffffffffffffffffffffffffffffffffffffff1660a08173ffffffffffffffffffffffffffffffffffffffff1681525050505050505050505062000468565b600033905090565b60008060009054906101000a900473ffffffffffffffffffffffffffffffffffffffff169050816000806101000a81548173ffffffffffffffffffffffffffffffffffffffff021916908373ffffffffffffffffffffffffffffffffffffffff1602179055508173ffffffffffffffffffffffffffffffffffffffff168173ffffffffffffffffffffffffffffffffffffffff167f8be0079c531659141344cd1fd0a4f28419497f9722a3daafe3b4186f6b6457e060405160405180910390a35050565b600080fd5b6000819050919050565b6200036b8162000356565b81146200037757600080fd5b50565b6000815190506200038b8162000360565b92915050565b600073ffffffffffffffffffffffffffffffffffffffff82169050919050565b6000620003be8262000391565b9050919050565b620003d081620003b1565b8114620003dc57600080fd5b50565b600081519050620003f081620003c5565b92915050565b6000806000806080858703121562000413576200041262000351565b5b600062000423878288016200037a565b94505060206200043687828801620003df565b93505060406200044987828801620003df565b92505060606200045c87828801620003df565b91505092959194509250565b60805160a05160c05160e0516122fa620004cb6000396000818161106c015261109601526000818161155b01526116ce015260008181611466015261165601526000818160cd0152818161142901528181611597015261161a01526122fa6000f3fe6080604052600436106100c65760003560e01c80638da5cb5b1161007f578063dc68736411610059578063dc687364146102ab578063e086e5ec146102d6578063f2fde38b146102ed578063f6326fb31461031657610129565b80638da5cb5b1461022a5780639f0f729d14610255578063ca4476b31461028057610129565b8063041cfdba1461016457806306fdde031461017b578063259ba415146101a6578063310cdebc146101bd578063715018a6146101e857806383aea625146101ff57610129565b36610129577f000000000000000000000000000000000000000000000000000000000000000073ffffffffffffffffffffffffffffffffffffffff163373ffffffffffffffffffffffffffffffffffffffff161461012757610126610320565b5b005b6040517f08c379a000000000000000000000000000000000000000000000000000000000815260040161015b90611912565b60405180910390fd5b34801561017057600080fd5b50610179610729565b005b34801561018757600080fd5b506101906108db565b60405161019d91906119b1565b60405180910390f35b3480156101b257600080fd5b506101bb610914565b005b3480156101c957600080fd5b506101d2610add565b6040516101df91906119ec565b60405180910390f35b3480156101f457600080fd5b506101fd610ae7565b005b34801561020b57600080fd5b50610214610b32565b60405161022191906119ec565b60405180910390f35b34801561023657600080fd5b5061023f610b3c565b60405161024c9190611a48565b60405180910390f35b34801561026157600080fd5b5061026a610b65565b60405161027791906119ec565b60405180910390f35b34801561028c57600080fd5b50610295610c33565b6040516102a29190611ac7565b60405180910390f35b3480156102b757600080fd5b506102c0610d37565b6040516102cd91906119ec565b60405180910390f35b3480156102e257600080fd5b506102eb610d41565b005b3480156102f957600080fd5b50610314600480360381019061030f9190611b13565b6113a4565b005b61031e610320565b005b346000810361035b576040517ff45911f000000000000000000000000000000000000000000000000000000000815260040160405180910390fd5b33600080600660008473ffffffffffffffffffffffffffffffffffffffff1673ffffffffffffffffffffffffffffffffffffffff1681526020019081526020016000206000015414806103b057506000600554145b806103fe5750600554600660008473ffffffffffffffffffffffffffffffffffffffff1673ffffffffffffffffffffffffffffffffffffffff16815260200190815260200160002060020154145b905060001515811515036105125764e8d4a51000600660008473ffffffffffffffffffffffffffffffffffffffff1673ffffffffffffffffffffffffffffffffffffffff16815260200190815260200160002060010154600660008573ffffffffffffffffffffffffffffffffffffffff1673ffffffffffffffffffffffffffffffffffffffff168152602001908152602001600020600201546005546104a59190611b6f565b6104af9190611ba3565b6104b99190611c14565b600660008473ffffffffffffffffffffffffffffffffffffffff1673ffffffffffffffffffffffffffffffffffffffff168152602001908152602001600020600301600082825461050a9190611c45565b925050819055505b600260015403610557576040517f08c379a000000000000000000000000000000000000000000000000000000000815260040161054e90611cc5565b60405180910390fd5b60026001819055506000600660003373ffffffffffffffffffffffffffffffffffffffff1673ffffffffffffffffffffffffffffffffffffffff16815260200190815260200160002060000154036105c257600360008154809291906105bc90611ce5565b91905055505b34600660003373ffffffffffffffffffffffffffffffffffffffff1673ffffffffffffffffffffffffffffffffffffffff16815260200190815260200160002060010160008282546106149190611c45565b9250508190555042600660003373ffffffffffffffffffffffffffffffffffffffff1673ffffffffffffffffffffffffffffffffffffffff16815260200190815260200160002060000181905550600554600660003373ffffffffffffffffffffffffffffffffffffffff1673ffffffffffffffffffffffffffffffffffffffff1681526020019081526020016000206002018190555034600460008282546106bd9190611c45565b925050819055506106cd34611427565b3373ffffffffffffffffffffffffffffffffffffffff167f1449c6dd7851abc30abf37f57715f492010519147cc2652fbc38202c18a6ee903442604051610715929190611d2d565b60405180910390a260018081905550505050565b6107316114db565b600260015403610776576040517f08c379a000000000000000000000000000000000000000000000000000000000815260040161076d90611cc5565b60405180910390fd5b60026001819055506000600254116107c3576040517f08c379a00000000000000000000000000000000000000000000000000000000081526004016107ba90611dc8565b60405180910390fd5b6107ce600254611559565b60006002549050600060028190555060003373ffffffffffffffffffffffffffffffffffffffff168260405161080390611e19565b60006040518083038185875af1925050503d8060008114610840576040519150601f19603f3d011682016040523d82523d6000602084013e610845565b606091505b5050905080610880576040517f6747a28800000000000000000000000000000000000000000000000000000000815260040160405180910390fd5b3373ffffffffffffffffffffffffffffffffffffffff167f81dd332ee577191bffb534272f069dd3e6db213a25e78c1c696b3edbc562540583426040516108c8929190611d2d565b60405180910390a2505060018081905550565b6040518060400160405280601d81526020017f5374616b696e672065746865727320736d61727420636f6e747261637400000081525081565b61091c6114db565b600260015403610961576040517f08c379a000000000000000000000000000000000000000000000000000000000815260040161095890611cc5565b60405180910390fd5b600260018190555060006109736116ca565b905060045481116109b9576040517f08c379a00000000000000000000000000000000000000000000000000000000081526004016109b090611ea0565b60405180910390fd5b6000600454826109c99190611b6f565b90506109d481611559565b60008190506000915060003373ffffffffffffffffffffffffffffffffffffffff1682604051610a0390611e19565b60006040518083038185875af1925050503d8060008114610a40576040519150601f19603f3d011682016040523d82523d6000602084013e610a45565b606091505b5050905080610a80576040517f6747a28800000000000000000000000000000000000000000000000000000000815260040160405180910390fd5b3373ffffffffffffffffffffffffffffffffffffffff167ffc88ab5a880b19a68bf59ce0e6f9161d301bc2f82b1cf5856b58adc8502f44c38342604051610ac8929190611d2d565b60405180910390a25050505060018081905550565b6000600454905090565b610aef6114db565b6000610b30576040517f08c379a0000000000000000000000000000000000000000000000000000000008152600401610b2790611f32565b60405180910390fd5b565b6000600354905090565b60008060009054906101000a900473ffffffffffffffffffffffffffffffffffffffff16905090565b600080600660003373ffffffffffffffffffffffffffffffffffffffff1673ffffffffffffffffffffffffffffffffffffffff1681526020019081526020016000206000015403610beb576040517f08c379a0000000000000000000000000000000000000000000000000000000008152600401610be290611f9e565b60405180910390fd5b600660003373ffffffffffffffffffffffffffffffffffffffff1673ffffffffffffffffffffffffffffffffffffffff16815260200190815260200160002060010154905090565b610c3b61188d565b6000600660003373ffffffffffffffffffffffffffffffffffffffff1673ffffffffffffffffffffffffffffffffffffffff1681526020019081526020016000206000015403610cc0576040517f08c379a0000000000000000000000000000000000000000000000000000000008152600401610cb790611f9e565b60405180910390fd5b600660003373ffffffffffffffffffffffffffffffffffffffff1673ffffffffffffffffffffffffffffffffffffffff168152602001908152602001600020604051806080016040529081600082015481526020016001820154815260200160028201548152602001600382015481525050905090565b6000600254905090565b33600080600660008473ffffffffffffffffffffffffffffffffffffffff1673ffffffffffffffffffffffffffffffffffffffff168152602001908152602001600020600001541480610d9657506000600554145b80610de45750600554600660008473ffffffffffffffffffffffffffffffffffffffff1673ffffffffffffffffffffffffffffffffffffffff16815260200190815260200160002060020154145b90506000151581151503610ef85764e8d4a51000600660008473ffffffffffffffffffffffffffffffffffffffff1673ffffffffffffffffffffffffffffffffffffffff16815260200190815260200160002060010154600660008573ffffffffffffffffffffffffffffffffffffffff1673ffffffffffffffffffffffffffffffffffffffff16815260200190815260200160002060020154600554610e8b9190611b6f565b610e959190611ba3565b610e9f9190611c14565b600660008473ffffffffffffffffffffffffffffffffffffffff1673ffffffffffffffffffffffffffffffffffffffff1681526020019081526020016000206003016000828254610ef09190611c45565b925050819055505b600260015403610f3d576040517f08c379a0000000000000000000000000000000000000000000000000000000008152600401610f3490611cc5565b60405180910390fd5b60026001819055506000600660003373ffffffffffffffffffffffffffffffffffffffff1673ffffffffffffffffffffffffffffffffffffffff1681526020019081526020016000206000015403610fca576040517f08c379a0000000000000000000000000000000000000000000000000000000008152600401610fc190611f9e565b60405180910390fd5b6000600660003373ffffffffffffffffffffffffffffffffffffffff1673ffffffffffffffffffffffffffffffffffffffff168152602001908152602001600020600001544261101a9190611b6f565b90506000600660003373ffffffffffffffffffffffffffffffffffffffff1673ffffffffffffffffffffffffffffffffffffffff168152602001908152602001600020600101549050600081905060007f00000000000000000000000000000000000000000000000000000000000000008410156111035760007f000000000000000000000000000000000000000000000000000000000000000060026110c19190611ba3565b85856110cd9190611ba3565b6110d79190611c14565b9050806002856110e79190611c14565b6110f19190611c45565b925082846110ff9190611b6f565b9150505b600660003373ffffffffffffffffffffffffffffffffffffffff1673ffffffffffffffffffffffffffffffffffffffff16815260200190815260200160002060030154826111519190611c45565b91506003600081548092919061116690611fbe565b9190505550826004600082825461117d9190611b6f565b925050819055506000600454036112185780600260008282546111a09190611c45565b925050819055506111af610b3c565b73ffffffffffffffffffffffffffffffffffffffff163373ffffffffffffffffffffffffffffffffffffffff167f9184b0912d6bd5fdff1a30b011ecfc51d57ace772e83dc142448228a4a3e2ec46002544260405161120f929190611d2d565b60405180910390a35b6112248160045461176b565b600581905550600660003373ffffffffffffffffffffffffffffffffffffffff1673ffffffffffffffffffffffffffffffffffffffff168152602001908152602001600020600080820160009055600182016000905560028201600090556003820160009055505061129582611559565b60008290506000925060003373ffffffffffffffffffffffffffffffffffffffff16826040516112c490611e19565b60006040518083038185875af1925050503d8060008114611301576040519150601f19603f3d011682016040523d82523d6000602084013e611306565b606091505b5050905080611341576040517f6747a28800000000000000000000000000000000000000000000000000000000815260040160405180910390fd5b3373ffffffffffffffffffffffffffffffffffffffff167f204fccf0d92ed8d48f204adb39b2e81e92bad0dedb93f5716ca9478cfb57de0083854260405161138b93929190611fe7565b60405180910390a2505050505050600180819055505050565b6113ac6114db565b600073ffffffffffffffffffffffffffffffffffffffff168173ffffffffffffffffffffffffffffffffffffffff160361141b576040517f08c379a000000000000000000000000000000000000000000000000000000000815260040161141290612090565b60405180910390fd5b611424816117c1565b50565b7f000000000000000000000000000000000000000000000000000000000000000073ffffffffffffffffffffffffffffffffffffffff1663474cf53d827f00000000000000000000000000000000000000000000000000000000000000003060006040518563ffffffff1660e01b81526004016114a693929190612103565b6000604051808303818588803b1580156114bf57600080fd5b505af11580156114d3573d6000803e3d6000fd5b505050505050565b6114e3611885565b73ffffffffffffffffffffffffffffffffffffffff16611501610b3c565b73ffffffffffffffffffffffffffffffffffffffff1614611557576040517f08c379a000000000000000000000000000000000000000000000000000000000815260040161154e90612186565b60405180910390fd5b565b7f000000000000000000000000000000000000000000000000000000000000000073ffffffffffffffffffffffffffffffffffffffff1663095ea7b37f0000000000000000000000000000000000000000000000000000000000000000836040518363ffffffff1660e01b81526004016115d49291906121a6565b6020604051808303816000875af11580156115f3573d6000803e3d6000fd5b505050506040513d601f19601f820116820180604052508101906116179190612207565b507f000000000000000000000000000000000000000000000000000000000000000073ffffffffffffffffffffffffffffffffffffffff166380500d207f000000000000000000000000000000000000000000000000000000000000000083306040518463ffffffff1660e01b815260040161169593929190612234565b600060405180830381600087803b1580156116af57600080fd5b505af11580156116c3573d6000803e3d6000fd5b5050505050565b60007f000000000000000000000000000000000000000000000000000000000000000073ffffffffffffffffffffffffffffffffffffffff166370a08231306040518263ffffffff1660e01b81526004016117259190611a48565b602060405180830381865afa158015611742573d6000803e3d6000fd5b505050506040513d601f19601f820116820180604052508101906117669190612297565b905090565b600080820361177d57600090506117bb565b6000830361178f5760055490506117bb565b8164e8d4a51000846117a19190611ba3565b6117ab9190611c14565b6005546117b89190611c45565b90505b92915050565b60008060009054906101000a900473ffffffffffffffffffffffffffffffffffffffff169050816000806101000a81548173ffffffffffffffffffffffffffffffffffffffff021916908373ffffffffffffffffffffffffffffffffffffffff1602179055508173ffffffffffffffffffffffffffffffffffffffff168173ffffffffffffffffffffffffffffffffffffffff167f8be0079c531659141344cd1fd0a4f28419497f9722a3daafe3b4186f6b6457e060405160405180910390a35050565b600033905090565b6040518060800160405280600081526020016000815260200160008152602001600081525090565b600082825260208201905092915050565b7f46616c6c6261636b206e6f7420616c6c6f776564000000000000000000000000600082015250565b60006118fc6014836118b5565b9150611907826118c6565b602082019050919050565b6000602082019050818103600083015261192b816118ef565b9050919050565b600081519050919050565b60005b8381101561195b578082015181840152602081019050611940565b60008484015250505050565b6000601f19601f8301169050919050565b600061198382611932565b61198d81856118b5565b935061199d81856020860161193d565b6119a681611967565b840191505092915050565b600060208201905081810360008301526119cb8184611978565b905092915050565b6000819050919050565b6119e6816119d3565b82525050565b6000602082019050611a0160008301846119dd565b92915050565b600073ffffffffffffffffffffffffffffffffffffffff82169050919050565b6000611a3282611a07565b9050919050565b611a4281611a27565b82525050565b6000602082019050611a5d6000830184611a39565b92915050565b611a6c816119d3565b82525050565b608082016000820151611a886000850182611a63565b506020820151611a9b6020850182611a63565b506040820151611aae6040850182611a63565b506060820151611ac16060850182611a63565b50505050565b6000608082019050611adc6000830184611a72565b92915050565b600080fd5b611af081611a27565b8114611afb57600080fd5b50565b600081359050611b0d81611ae7565b92915050565b600060208284031215611b2957611b28611ae2565b5b6000611b3784828501611afe565b91505092915050565b7f4e487b7100000000000000000000000000000000000000000000000000000000600052601160045260246000fd5b6000611b7a826119d3565b9150611b85836119d3565b9250828203905081811115611b9d57611b9c611b40565b5b92915050565b6000611bae826119d3565b9150611bb9836119d3565b9250828202611bc7816119d3565b91508282048414831517611bde57611bdd611b40565b5b5092915050565b7f4e487b7100000000000000000000000000000000000000000000000000000000600052601260045260246000fd5b6000611c1f826119d3565b9150611c2a836119d3565b925082611c3a57611c39611be5565b5b828204905092915050565b6000611c50826119d3565b9150611c5b836119d3565b9250828201905080821115611c7357611c72611b40565b5b92915050565b7f5265656e7472616e637947756172643a207265656e7472616e742063616c6c00600082015250565b6000611caf601f836118b5565b9150611cba82611c79565b602082019050919050565b60006020820190508181036000830152611cde81611ca2565b9050919050565b6000611cf0826119d3565b91507fffffffffffffffffffffffffffffffffffffffffffffffffffffffffffffffff8203611d2257611d21611b40565b5b600182019050919050565b6000604082019050611d4260008301856119dd565b611d4f60208301846119dd565b9392505050565b7f546865726520617265206e6f20756e616c6c6f6361746564207265776172647360008201527f20617420746865206d6f6d656e74210000000000000000000000000000000000602082015250565b6000611db2602f836118b5565b9150611dbd82611d56565b604082019050919050565b60006020820190508181036000830152611de181611da5565b9050919050565b600081905092915050565b50565b6000611e03600083611de8565b9150611e0e82611df3565b600082019050919050565b6000611e2482611df6565b9150819050919050565b7f43757272656e746c7920746865726520617265206e6f2070617373697665206960008201527f6e636f6d65210000000000000000000000000000000000000000000000000000602082015250565b6000611e8a6026836118b5565b9150611e9582611e2e565b604082019050919050565b60006020820190508181036000830152611eb981611e7d565b9050919050565b7f43616e27742072656e6f756e636520636f6e7472616374206f776e657273686960008201527f702e000000000000000000000000000000000000000000000000000000000000602082015250565b6000611f1c6022836118b5565b9150611f2782611ec0565b604082019050919050565b60006020820190508181036000830152611f4b81611f0f565b9050919050565b7f596f7520617265206e6f74207061727469636970616e74210000000000000000600082015250565b6000611f886018836118b5565b9150611f9382611f52565b602082019050919050565b60006020820190508181036000830152611fb781611f7b565b9050919050565b6000611fc9826119d3565b915060008203611fdc57611fdb611b40565b5b600182039050919050565b6000606082019050611ffc60008301866119dd565b61200960208301856119dd565b61201660408301846119dd565b949350505050565b7f4f776e61626c653a206e6577206f776e657220697320746865207a65726f206160008201527f6464726573730000000000000000000000000000000000000000000000000000602082015250565b600061207a6026836118b5565b91506120858261201e565b604082019050919050565b600060208201905081810360008301526120a98161206d565b9050919050565b6000819050919050565b600061ffff82169050919050565b6000819050919050565b60006120ed6120e86120e3846120b0565b6120c8565b6120ba565b9050919050565b6120fd816120d2565b82525050565b60006060820190506121186000830186611a39565b6121256020830185611a39565b61213260408301846120f4565b949350505050565b7f4f776e61626c653a2063616c6c6572206973206e6f7420746865206f776e6572600082015250565b60006121706020836118b5565b915061217b8261213a565b602082019050919050565b6000602082019050818103600083015261219f81612163565b9050919050565b60006040820190506121bb6000830185611a39565b6121c860208301846119dd565b9392505050565b60008115159050919050565b6121e4816121cf565b81146121ef57600080fd5b50565b600081519050612201816121db565b92915050565b60006020828403121561221d5761221c611ae2565b5b600061222b848285016121f2565b91505092915050565b60006060820190506122496000830186611a39565b61225660208301856119dd565b6122636040830184611a39565b949350505050565b612274816119d3565b811461227f57600080fd5b50565b6000815190506122918161226b565b92915050565b6000602082840312156122ad576122ac611ae2565b5b60006122bb84828501612282565b9150509291505056fea2646970667358221220d5f17c828ea1f18250aab2d373309c902a13ac35aa8ffc45aad84b089058da9164736f6c63430008110033",
  "linkReferences": {},
  "deployedLinkReferences": {}
}